{
  "_format": "hh-sol-artifact-1",
  "contractName": "ProductVerification",
  "sourceName": "contracts/ProductVerification.sol",
  "abi": [
    {
      "anonymous": false,
      "inputs": [
        {
          "indexed": true,
          "internalType": "address",
          "name": "wallet",
          "type": "address"
        },
        {
          "indexed": false,
          "internalType": "string",
          "name": "name",
          "type": "string"
        },
        {
          "indexed": false,
          "internalType": "uint256",
          "name": "timestamp",
          "type": "uint256"
        }
      ],
      "name": "CompanyRegistered",
      "type": "event"
    },
    {
      "anonymous": false,
      "inputs": [
        {
          "indexed": true,
          "internalType": "string",
          "name": "serialNumber",
          "type": "string"
        },
        {
          "indexed": false,
          "internalType": "string",
          "name": "name",
          "type": "string"
        },
        {
          "indexed": true,
          "internalType": "address",
          "name": "manufacturer",
          "type": "address"
        },
        {
          "indexed": false,
          "internalType": "uint256",
          "name": "timestamp",
          "type": "uint256"
        }
      ],
      "name": "ProductRegistered",
      "type": "event"
    },
    {
      "anonymous": false,
      "inputs": [
        {
          "indexed": true,
          "internalType": "string",
          "name": "serialNumber",
          "type": "string"
        },
        {
          "indexed": false,
          "internalType": "bool",
          "name": "isAuthentic",
          "type": "bool"
        },
        {
          "indexed": false,
          "internalType": "uint256",
          "name": "timestamp",
          "type": "uint256"
        }
      ],
      "name": "ProductVerified",
      "type": "event"
    },
    {
      "inputs": [
        {
          "internalType": "address",
          "name": "",
          "type": "address"
        }
      ],
      "name": "companies",
      "outputs": [
        {
          "internalType": "string",
          "name": "name",
          "type": "string"
        },
        {
          "internalType": "string",
          "name": "email",
          "type": "string"
        },
        {
          "internalType": "address",
          "name": "walletAddress",
          "type": "address"
        },
        {
          "internalType": "bool",
          "name": "isRegistered",
          "type": "bool"
        },
        {
          "internalType": "uint256",
          "name": "registeredAt",
          "type": "uint256"
        }
      ],
      "stateMutability": "view",
      "type": "function"
    },
    {
      "inputs": [],
      "name": "companyCount",
      "outputs": [
        {
          "internalType": "uint256",
          "name": "",
          "type": "uint256"
        }
      ],
      "stateMutability": "view",
      "type": "function"
    },
    {
      "inputs": [
        {
          "internalType": "address",
          "name": "",
          "type": "address"
        },
        {
          "internalType": "uint256",
          "name": "",
          "type": "uint256"
        }
      ],
      "name": "companyProducts",
      "outputs": [
        {
          "internalType": "string",
          "name": "",
          "type": "string"
        }
      ],
      "stateMutability": "view",
      "type": "function"
    },
    {
      "inputs": [
        {
          "internalType": "address",
          "name": "_wallet",
          "type": "address"
        }
      ],
      "name": "getCompany",
      "outputs": [
        {
          "internalType": "string",
          "name": "name",
          "type": "string"
        },
        {
          "internalType": "string",
          "name": "email",
          "type": "string"
        },
        {
          "internalType": "bool",
          "name": "isRegistered",
          "type": "bool"
        },
        {
          "internalType": "uint256",
          "name": "registeredAt",
          "type": "uint256"
        }
      ],
      "stateMutability": "view",
      "type": "function"
    },
    {
      "inputs": [
        {
          "internalType": "address",
          "name": "_company",
          "type": "address"
        }
      ],
      "name": "getCompanyProducts",
      "outputs": [
        {
          "internalType": "string[]",
          "name": "",
          "type": "string[]"
        }
      ],
      "stateMutability": "view",
      "type": "function"
    },
    {
      "inputs": [
        {
          "internalType": "string",
          "name": "_serialNumber",
          "type": "string"
        }
      ],
      "name": "getProduct",
      "outputs": [
        {
          "components": [
            {
              "internalType": "uint256",
              "name": "id",
              "type": "uint256"
            },
            {
              "internalType": "string",
              "name": "name",
              "type": "string"
            },
            {
              "internalType": "string",
              "name": "serialNumber",
              "type": "string"
            },
            {
              "internalType": "string",
              "name": "manufacturer",
              "type": "string"
            },
            {
              "internalType": "uint256",
              "name": "registeredAt",
              "type": "uint256"
            },
            {
              "internalType": "address",
              "name": "registeredBy",
              "type": "address"
            },
            {
              "internalType": "bool",
              "name": "exists",
              "type": "bool"
            },
            {
              "internalType": "bool",
              "name": "isAuthentic",
              "type": "bool"
            }
          ],
          "internalType": "struct ProductVerification.Product",
          "name": "",
          "type": "tuple"
        }
      ],
      "stateMutability": "view",
      "type": "function"
    },
    {
      "inputs": [
        {
          "internalType": "address",
          "name": "_wallet",
          "type": "address"
        }
      ],
      "name": "isCompanyRegistered",
      "outputs": [
        {
          "internalType": "bool",
          "name": "",
          "type": "bool"
        }
      ],
      "stateMutability": "view",
      "type": "function"
    },
    {
      "inputs": [],
      "name": "productCount",
      "outputs": [
        {
          "internalType": "uint256",
          "name": "",
          "type": "uint256"
        }
      ],
      "stateMutability": "view",
      "type": "function"
    },
    {
      "inputs": [
        {
          "internalType": "string",
          "name": "",
          "type": "string"
        }
      ],
      "name": "products",
      "outputs": [
        {
          "internalType": "uint256",
          "name": "id",
          "type": "uint256"
        },
        {
          "internalType": "string",
          "name": "name",
          "type": "string"
        },
        {
          "internalType": "string",
          "name": "serialNumber",
          "type": "string"
        },
        {
          "internalType": "string",
          "name": "manufacturer",
          "type": "string"
        },
        {
          "internalType": "uint256",
          "name": "registeredAt",
          "type": "uint256"
        },
        {
          "internalType": "address",
          "name": "registeredBy",
          "type": "address"
        },
        {
          "internalType": "bool",
          "name": "exists",
          "type": "bool"
        },
        {
          "internalType": "bool",
          "name": "isAuthentic",
          "type": "bool"
        }
      ],
      "stateMutability": "view",
      "type": "function"
    },
    {
      "inputs": [
        {
          "internalType": "string",
          "name": "_name",
          "type": "string"
        },
        {
          "internalType": "string",
          "name": "_email",
          "type": "string"
        }
      ],
      "name": "registerCompany",
      "outputs": [],
      "stateMutability": "nonpayable",
      "type": "function"
    },
    {
      "inputs": [
        {
          "internalType": "string",
          "name": "_name",
          "type": "string"
        },
        {
          "internalType": "string",
          "name": "_serialNumber",
          "type": "string"
        }
      ],
      "name": "registerProduct",
      "outputs": [],
      "stateMutability": "nonpayable",
      "type": "function"
    },
    {
      "inputs": [
        {
          "internalType": "string",
          "name": "_serialNumber",
          "type": "string"
        }
      ],
      "name": "verifyProduct",
      "outputs": [
        {
          "internalType": "bool",
          "name": "exists",
          "type": "bool"
        },
        {
          "internalType": "bool",
          "name": "isAuthentic",
          "type": "bool"
        },
        {
          "internalType": "string",
          "name": "name",
          "type": "string"
        },
        {
          "internalType": "string",
          "name": "manufacturer",
          "type": "string"
        },
        {
          "internalType": "uint256",
          "name": "registeredAt",
          "type": "uint256"
        }
      ],
      "stateMutability": "view",
      "type": "function"
    }
  ],
  "bytecode": "0x608060405234801561001057600080fd5b50612809806100206000396000f3fe608060405234801561001057600080fd5b50600436106100b45760003560e01c806368111cce1161007157806368111cce146101e757806374448ba4146102175780638e75dd47146102335780638fbd0dcf1461025157806392efc4531461026d578063e0f6ef87146102a1576100b4565b80630186a423146100b957806318a9c372146100f05780632eb6908d14610120578063355e6ce81461015057806356ea04a31461018457806362bc56e6146101b4575b600080fd5b6100d360048036038101906100ce91906119c0565b6102bf565b6040516100e7989796959493929190611afd565b60405180910390f35b61010a60048036038101906101059190611be8565b6104ef565b6040516101179190611c28565b60405180910390f35b61013a60048036038101906101359190611c4a565b6105a8565b6040516101479190611d83565b60405180910390f35b61016a60048036038101906101659190611c4a565b6106c0565b60405161017b959493929190611da5565b60405180910390f35b61019e60048036038101906101999190611c4a565b610833565b6040516101ab9190611e06565b60405180910390f35b6101ce60048036038101906101c99190611c4a565b61088b565b6040516101de9493929190611e21565b60405180910390f35b61020160048036038101906101fc91906119c0565b610aa1565b60405161020e9190611f5f565b60405180910390f35b610231600480360381019061022c9190611f81565b610da0565b005b61023b611040565b6040516102489190611ff9565b60405180910390f35b61026b60048036038101906102669190611f81565b611046565b005b610287600480360381019061028291906119c0565b6114de565b604051610298959493929190612014565b60405180910390f35b6102a9611801565b6040516102b69190611ff9565b60405180910390f35b6001818051602081018201805184825260208301602085012081835280955050505050506000915090508060000154908060010180546102fe906120a4565b80601f016020809104026020016040519081016040528092919081815260200182805461032a906120a4565b80156103775780601f1061034c57610100808354040283529160200191610377565b820191906000526020600020905b81548152906001019060200180831161035a57829003601f168201915b50505050509080600201805461038c906120a4565b80601f01602080910402602001604051908101604052809291908181526020018280546103b8906120a4565b80156104055780601f106103da57610100808354040283529160200191610405565b820191906000526020600020905b8154815290600101906020018083116103e857829003601f168201915b50505050509080600301805461041a906120a4565b80601f0160208091040260200160405190810160405280929190818152602001828054610446906120a4565b80156104935780601f1061046857610100808354040283529160200191610493565b820191906000526020600020905b81548152906001019060200180831161047657829003601f168201915b5050505050908060040154908060050160009054906101000a900473ffffffffffffffffffffffffffffffffffffffff16908060050160149054906101000a900460ff16908060050160159054906101000a900460ff16905088565b6002602052816000526040600020818154811061050b57600080fd5b90600052602060002001600091509150508054610527906120a4565b80601f0160208091040260200160405190810160405280929190818152602001828054610553906120a4565b80156105a05780601f10610575576101008083540402835291602001916105a0565b820191906000526020600020905b81548152906001019060200180831161058357829003601f168201915b505050505081565b6060600260008373ffffffffffffffffffffffffffffffffffffffff1673ffffffffffffffffffffffffffffffffffffffff168152602001908152602001600020805480602002602001604051908101604052809291908181526020016000905b828210156106b5578382906000526020600020018054610628906120a4565b80601f0160208091040260200160405190810160405280929190818152602001828054610654906120a4565b80156106a15780601f10610676576101008083540402835291602001916106a1565b820191906000526020600020905b81548152906001019060200180831161068457829003601f168201915b505050505081526020019060010190610609565b505050509050919050565b60006020528060005260406000206000915090508060000180546106e3906120a4565b80601f016020809104026020016040519081016040528092919081815260200182805461070f906120a4565b801561075c5780601f106107315761010080835404028352916020019161075c565b820191906000526020600020905b81548152906001019060200180831161073f57829003601f168201915b505050505090806001018054610771906120a4565b80601f016020809104026020016040519081016040528092919081815260200182805461079d906120a4565b80156107ea5780601f106107bf576101008083540402835291602001916107ea565b820191906000526020600020905b8154815290600101906020018083116107cd57829003601f168201915b5050505050908060020160009054906101000a900473ffffffffffffffffffffffffffffffffffffffff16908060020160149054906101000a900460ff16908060030154905085565b60008060008373ffffffffffffffffffffffffffffffffffffffff1673ffffffffffffffffffffffffffffffffffffffff16815260200190815260200160002060020160149054906101000a900460ff169050919050565b60608060008060008060008773ffffffffffffffffffffffffffffffffffffffff1673ffffffffffffffffffffffffffffffffffffffff1681526020019081526020016000206040518060a00160405290816000820180546108ec906120a4565b80601f0160208091040260200160405190810160405280929190818152602001828054610918906120a4565b80156109655780601f1061093a57610100808354040283529160200191610965565b820191906000526020600020905b81548152906001019060200180831161094857829003601f168201915b5050505050815260200160018201805461097e906120a4565b80601f01602080910402602001604051908101604052809291908181526020018280546109aa906120a4565b80156109f75780601f106109cc576101008083540402835291602001916109f7565b820191906000526020600020905b8154815290600101906020018083116109da57829003601f168201915b505050505081526020016002820160009054906101000a900473ffffffffffffffffffffffffffffffffffffffff1673ffffffffffffffffffffffffffffffffffffffff1673ffffffffffffffffffffffffffffffffffffffff1681526020016002820160149054906101000a900460ff16151515158152602001600382015481525050905080600001518160200151826060015183608001519450945094509450509193509193565b610aa9611807565b81600181604051610aba9190612111565b908152602001604051809103902060050160149054906101000a900460ff16610b18576040517f08c379a0000000000000000000000000000000000000000000000000000000008152600401610b0f90612174565b60405180910390fd5b600183604051610b289190612111565b90815260200160405180910390206040518061010001604052908160008201548152602001600182018054610b5c906120a4565b80601f0160208091040260200160405190810160405280929190818152602001828054610b88906120a4565b8015610bd55780601f10610baa57610100808354040283529160200191610bd5565b820191906000526020600020905b815481529060010190602001808311610bb857829003601f168201915b50505050508152602001600282018054610bee906120a4565b80601f0160208091040260200160405190810160405280929190818152602001828054610c1a906120a4565b8015610c675780601f10610c3c57610100808354040283529160200191610c67565b820191906000526020600020905b815481529060010190602001808311610c4a57829003601f168201915b50505050508152602001600382018054610c80906120a4565b80601f0160208091040260200160405190810160405280929190818152602001828054610cac906120a4565b8015610cf95780601f10610cce57610100808354040283529160200191610cf9565b820191906000526020600020905b815481529060010190602001808311610cdc57829003601f168201915b50505050508152602001600482015481526020016005820160009054906101000a900473ffffffffffffffffffffffffffffffffffffffff1673ffffffffffffffffffffffffffffffffffffffff1673ffffffffffffffffffffffffffffffffffffffff1681526020016005820160149054906101000a900460ff161515151581526020016005820160159054906101000a900460ff161515151581525050915050919050565b6000803373ffffffffffffffffffffffffffffffffffffffff1673ffffffffffffffffffffffffffffffffffffffff16815260200190815260200160002060020160149054906101000a900460ff1615610e2f576040517f08c379a0000000000000000000000000000000000000000000000000000000008152600401610e26906121e0565b60405180910390fd5b6000825111610e73576040517f08c379a0000000000000000000000000000000000000000000000000000000008152600401610e6a9061224c565b60405180910390fd5b6000815111610eb7576040517f08c379a0000000000000000000000000000000000000000000000000000000008152600401610eae906122b8565b60405180910390fd5b6040518060a001604052808381526020018281526020013373ffffffffffffffffffffffffffffffffffffffff168152602001600115158152602001428152506000803373ffffffffffffffffffffffffffffffffffffffff1673ffffffffffffffffffffffffffffffffffffffff1681526020019081526020016000206000820151816000019081610f4a9190612484565b506020820151816001019081610f609190612484565b5060408201518160020160006101000a81548173ffffffffffffffffffffffffffffffffffffffff021916908373ffffffffffffffffffffffffffffffffffffffff16021790555060608201518160020160146101000a81548160ff0219169083151502179055506080820151816003015590505060046000815480929190610fe890612585565b91905055503373ffffffffffffffffffffffffffffffffffffffff167e78dab93f1aeefc09535aa58402d91dde97c29a340cd7a0a57e12529c94e21483426040516110349291906125cd565b60405180910390a25050565b60045481565b6000803373ffffffffffffffffffffffffffffffffffffffff1673ffffffffffffffffffffffffffffffffffffffff16815260200190815260200160002060020160149054906101000a900460ff166110d4576040517f08c379a00000000000000000000000000000000000000000000000000000000081526004016110cb90612649565b60405180910390fd5b6000825111611118576040517f08c379a000000000000000000000000000000000000000000000000000000000815260040161110f906126b5565b60405180910390fd5b600081511161115c576040517f08c379a000000000000000000000000000000000000000000000000000000000815260040161115390612721565b60405180910390fd5b60018160405161116c9190612111565b908152602001604051809103902060050160149054906101000a900460ff16156111cb576040517f08c379a00000000000000000000000000000000000000000000000000000000081526004016111c2906127b3565b60405180910390fd5b600360008154809291906111de90612585565b919050555060405180610100016040528060035481526020018381526020018281526020016000803373ffffffffffffffffffffffffffffffffffffffff1673ffffffffffffffffffffffffffffffffffffffff168152602001908152602001600020600001805461124f906120a4565b80601f016020809104026020016040519081016040528092919081815260200182805461127b906120a4565b80156112c85780601f1061129d576101008083540402835291602001916112c8565b820191906000526020600020905b8154815290600101906020018083116112ab57829003601f168201915b505050505081526020014281526020013373ffffffffffffffffffffffffffffffffffffffff168152602001600115158152602001600115158152506001826040516113149190612111565b90815260200160405180910390206000820151816000015560208201518160010190816113419190612484565b5060408201518160020190816113579190612484565b50606082015181600301908161136d9190612484565b506080820151816004015560a08201518160050160006101000a81548173ffffffffffffffffffffffffffffffffffffffff021916908373ffffffffffffffffffffffffffffffffffffffff16021790555060c08201518160050160146101000a81548160ff02191690831515021790555060e08201518160050160156101000a81548160ff021916908315150217905550905050600260003373ffffffffffffffffffffffffffffffffffffffff1673ffffffffffffffffffffffffffffffffffffffff168152602001908152602001600020819080600181540180825580915050600190039060005260206000200160009091909190915090816114739190612484565b503373ffffffffffffffffffffffffffffffffffffffff16816040516114999190612111565b60405180910390207f0c0d491e345bc2978c00d63d2467e57a7b6d771cf759616a786b1d339d75f1b584426040516114d29291906125cd565b60405180910390a35050565b60008060608060006001866040516114f69190612111565b908152602001604051809103902060050160149054906101000a900460ff1661154f57600080600060405180602001604052806000815250906040518060200160405280600081525090945094509450945094506117f8565b60006001876040516115619190612111565b90815260200160405180910390206040518061010001604052908160008201548152602001600182018054611595906120a4565b80601f01602080910402602001604051908101604052809291908181526020018280546115c1906120a4565b801561160e5780601f106115e35761010080835404028352916020019161160e565b820191906000526020600020905b8154815290600101906020018083116115f157829003601f168201915b50505050508152602001600282018054611627906120a4565b80601f0160208091040260200160405190810160405280929190818152602001828054611653906120a4565b80156116a05780601f10611675576101008083540402835291602001916116a0565b820191906000526020600020905b81548152906001019060200180831161168357829003601f168201915b505050505081526020016003820180546116b9906120a4565b80601f01602080910402602001604051908101604052809291908181526020018280546116e5906120a4565b80156117325780601f1061170757610100808354040283529160200191611732565b820191906000526020600020905b81548152906001019060200180831161171557829003601f168201915b50505050508152602001600482015481526020016005820160009054906101000a900473ffffffffffffffffffffffffffffffffffffffff1673ffffffffffffffffffffffffffffffffffffffff1673ffffffffffffffffffffffffffffffffffffffff1681526020016005820160149054906101000a900460ff161515151581526020016005820160159054906101000a900460ff16151515158152505090508060c001518160e0015182602001518360600151846080015195509550955095509550505b91939590929450565b60035481565b6040518061010001604052806000815260200160608152602001606081526020016060815260200160008152602001600073ffffffffffffffffffffffffffffffffffffffff1681526020016000151581526020016000151581525090565b6000604051905090565b600080fd5b600080fd5b600080fd5b600080fd5b6000601f19601f8301169050919050565b7f4e487b7100000000000000000000000000000000000000000000000000000000600052604160045260246000fd5b6118cd82611884565b810181811067ffffffffffffffff821117156118ec576118eb611895565b5b80604052505050565b60006118ff611866565b905061190b82826118c4565b919050565b600067ffffffffffffffff82111561192b5761192a611895565b5b61193482611884565b9050602081019050919050565b82818337600083830152505050565b600061196361195e84611910565b6118f5565b90508281526020810184848401111561197f5761197e61187f565b5b61198a848285611941565b509392505050565b600082601f8301126119a7576119a661187a565b5b81356119b7848260208601611950565b91505092915050565b6000602082840312156119d6576119d5611870565b5b600082013567ffffffffffffffff8111156119f4576119f3611875565b5b611a0084828501611992565b91505092915050565b6000819050919050565b611a1c81611a09565b82525050565b600081519050919050565b600082825260208201905092915050565b60005b83811015611a5c578082015181840152602081019050611a41565b60008484015250505050565b6000611a7382611a22565b611a7d8185611a2d565b9350611a8d818560208601611a3e565b611a9681611884565b840191505092915050565b600073ffffffffffffffffffffffffffffffffffffffff82169050919050565b6000611acc82611aa1565b9050919050565b611adc81611ac1565b82525050565b60008115159050919050565b611af781611ae2565b82525050565b600061010082019050611b13600083018b611a13565b8181036020830152611b25818a611a68565b90508181036040830152611b398189611a68565b90508181036060830152611b4d8188611a68565b9050611b5c6080830187611a13565b611b6960a0830186611ad3565b611b7660c0830185611aee565b611b8360e0830184611aee565b9998505050505050505050565b611b9981611ac1565b8114611ba457600080fd5b50565b600081359050611bb681611b90565b92915050565b611bc581611a09565b8114611bd057600080fd5b50565b600081359050611be281611bbc565b92915050565b60008060408385031215611bff57611bfe611870565b5b6000611c0d85828601611ba7565b9250506020611c1e85828601611bd3565b9150509250929050565b60006020820190508181036000830152611c428184611a68565b905092915050565b600060208284031215611c6057611c5f611870565b5b6000611c6e84828501611ba7565b91505092915050565b600081519050919050565b600082825260208201905092915050565b6000819050602082019050919050565b600082825260208201905092915050565b6000611cbf82611a22565b611cc98185611ca3565b9350611cd9818560208601611a3e565b611ce281611884565b840191505092915050565b6000611cf98383611cb4565b905092915050565b6000602082019050919050565b6000611d1982611c77565b611d238185611c82565b935083602082028501611d3585611c93565b8060005b85811015611d715784840389528151611d528582611ced565b9450611d5d83611d01565b925060208a01995050600181019050611d39565b50829750879550505050505092915050565b60006020820190508181036000830152611d9d8184611d0e565b905092915050565b600060a0820190508181036000830152611dbf8188611a68565b90508181036020830152611dd38187611a68565b9050611de26040830186611ad3565b611def6060830185611aee565b611dfc6080830184611a13565b9695505050505050565b6000602082019050611e1b6000830184611aee565b92915050565b60006080820190508181036000830152611e3b8187611a68565b90508181036020830152611e4f8186611a68565b9050611e5e6040830185611aee565b611e6b6060830184611a13565b95945050505050565b611e7d81611a09565b82525050565b611e8c81611ac1565b82525050565b611e9b81611ae2565b82525050565b600061010083016000830151611eba6000860182611e74565b5060208301518482036020860152611ed28282611cb4565b91505060408301518482036040860152611eec8282611cb4565b91505060608301518482036060860152611f068282611cb4565b9150506080830151611f1b6080860182611e74565b5060a0830151611f2e60a0860182611e83565b5060c0830151611f4160c0860182611e92565b5060e0830151611f5460e0860182611e92565b508091505092915050565b60006020820190508181036000830152611f798184611ea1565b905092915050565b60008060408385031215611f9857611f97611870565b5b600083013567ffffffffffffffff811115611fb657611fb5611875565b5b611fc285828601611992565b925050602083013567ffffffffffffffff811115611fe357611fe2611875565b5b611fef85828601611992565b9150509250929050565b600060208201905061200e6000830184611a13565b92915050565b600060a0820190506120296000830188611aee565b6120366020830187611aee565b81810360408301526120488186611a68565b9050818103606083015261205c8185611a68565b905061206b6080830184611a13565b9695505050505050565b7f4e487b7100000000000000000000000000000000000000000000000000000000600052602260045260246000fd5b600060028204905060018216806120bc57607f821691505b6020821081036120cf576120ce612075565b5b50919050565b600081905092915050565b60006120eb82611a22565b6120f581856120d5565b9350612105818560208601611a3e565b80840191505092915050565b600061211d82846120e0565b915081905092915050565b7f50726f6475637420646f6573206e6f7420657869737400000000000000000000600082015250565b600061215e601683611a2d565b915061216982612128565b602082019050919050565b6000602082019050818103600083015261218d81612151565b9050919050565b7f436f6d70616e7920616c72656164792072656769737465726564000000000000600082015250565b60006121ca601a83611a2d565b91506121d582612194565b602082019050919050565b600060208201905081810360008301526121f9816121bd565b9050919050565b7f4e616d652063616e6e6f7420626520656d707479000000000000000000000000600082015250565b6000612236601483611a2d565b915061224182612200565b602082019050919050565b6000602082019050818103600083015261226581612229565b9050919050565b7f456d61696c2063616e6e6f7420626520656d7074790000000000000000000000600082015250565b60006122a2601583611a2d565b91506122ad8261226c565b602082019050919050565b600060208201905081810360008301526122d181612295565b9050919050565b60008190508160005260206000209050919050565b60006020601f8301049050919050565b600082821b905092915050565b60006008830261233a7fffffffffffffffffffffffffffffffffffffffffffffffffffffffffffffffff826122fd565b61234486836122fd565b95508019841693508086168417925050509392505050565b6000819050919050565b600061238161237c61237784611a09565b61235c565b611a09565b9050919050565b6000819050919050565b61239b83612366565b6123af6123a782612388565b84845461230a565b825550505050565b600090565b6123c46123b7565b6123cf818484612392565b505050565b5b818110156123f3576123e86000826123bc565b6001810190506123d5565b5050565b601f82111561243857612409816122d8565b612412846122ed565b81016020851015612421578190505b61243561242d856122ed565b8301826123d4565b50505b505050565b600082821c905092915050565b600061245b6000198460080261243d565b1980831691505092915050565b6000612474838361244a565b9150826002028217905092915050565b61248d82611a22565b67ffffffffffffffff8111156124a6576124a5611895565b5b6124b082546120a4565b6124bb8282856123f7565b600060209050601f8311600181146124ee57600084156124dc578287015190505b6124e68582612468565b86555061254e565b601f1984166124fc866122d8565b60005b82811015612524578489015182556001820191506020850194506020810190506124ff565b86831015612541578489015161253d601f89168261244a565b8355505b6001600288020188555050505b505050505050565b7f4e487b7100000000000000000000000000000000000000000000000000000000600052601160045260246000fd5b600061259082611a09565b91507fffffffffffffffffffffffffffffffffffffffffffffffffffffffffffffffff82036125c2576125c1612556565b5b600182019050919050565b600060408201905081810360008301526125e78185611a68565b90506125f66020830184611a13565b9392505050565b7f436f6d70616e79206e6f74207265676973746572656400000000000000000000600082015250565b6000612633601683611a2d565b915061263e826125fd565b602082019050919050565b6000602082019050818103600083015261266281612626565b9050919050565b7f50726f64756374206e616d652063616e6e6f7420626520656d70747900000000600082015250565b600061269f601c83611a2d565b91506126aa82612669565b602082019050919050565b600060208201905081810360008301526126ce81612692565b9050919050565b7f53657269616c206e756d6265722063616e6e6f7420626520656d707479000000600082015250565b600061270b601d83611a2d565b9150612716826126d5565b602082019050919050565b6000602082019050818103600083015261273a816126fe565b9050919050565b7f50726f64756374207769746820746869732073657269616c20616c726561647960008201527f2072656769737465726564000000000000000000000000000000000000000000602082015250565b600061279d602b83611a2d565b91506127a882612741565b604082019050919050565b600060208201905081810360008301526127cc81612790565b905091905056fea2646970667358221220324eb0103c223c2b1b8d4e3e3047741be8613b64168421f198723541ba4d25a264736f6c63430008130033",
  "linkReferences": {},
  "deployedLinkReferences": {}
}